:1000000033C0000044C0000042C0000040C00000F7
:100010003EC000003CC000003AC0000038C00000F4
:1000200036C0000034C0000032C0000030C0000004
:100030002EC000002CC000002AC0000028C0000014
:1000400026C0000024C0000022C0000020C0000024
:100050001EC000001CC000001AC0000018C0000034
:1000600016C0000014C0000011241FBECFEFD8E05E
:10007000DEBFCDBF11E0A0E0B1E0E4E7F5E002C0F3
:1000800005900D92A032B107D9F77CD171C2B8CFDB
:100090008093BB0084E88093BC008091BC0087FF04
:1000A000FCCF8091B900887F883159F08091B900E8
:1000B000887F803431F08091B90090E0887F883269
:1000C00009F491E0892F0895FC01662321F08091C5
:1000D000BC00806403C08091BC008F7B8093BC0017
:1000E0008091BC0080688093BC008091BC0087FF39
:1000F000FCCF8091B900887F803539F08091B900BC
:10010000887F883511F080E008958091BB0080835E
:1001100081E008951F93CF93DF93182FEB0184EABA
:100120008093BC008091BC0087FFFCCF80EDB0DFE6
:100130008823E9F0812FACDF8823C9F084EA80931B
:10014000BC008091BC0087FFFCCF81EDA1DF88233C
:1001500071F0CE0160E0B8DF882349F084E9809334
:10016000BC008091BC0084FDFCCF81E001C080E038
:10017000DF91CF911F9108950F931F93182F062F92
:1001800084EA8093BC008091BC0087FFFCCF80EDA7
:100190007FDF882389F0812F7BDF882369F0802F20
:1001A00077DF882349F084E98093BC008091BC000C
:1001B00084FDFCCF81E001C080E01F910F91089584
:1001C00058985A9A9BB19F709BB92BB1982F907FEA
:1001D000922B9BB920E931E0F9013197F1F75A9858
:1001E000F9013197F1F75A9A9BB19F709BB99BB176
:1001F0008295807F982B9BB9C9010197F1F75A9896
:10020000C9010197F1F708959BB195609BB99BB126
:100210009F709BB92BB1982F907F922B9BB920E9AF
:1002200031E0F9013197F1F75A98F9013197F1F777
:100230005A9A9BB19F709BB99BB18295807F982BF6
:100240009BB9C9010197F1F75A98C9010197F1F7D4
:1002500008951F93CF93DF93182FEB018CE0B0DF4D
:10026000812FAEDF02C0D0DF219688818823D9F7A5
:10027000DF91CF911F910895CF93DF93EC0162300E
:10028000C9F0633018F4613029F51EC0633041F0C5
:10029000643001F568EE73E057D1862F805DB4DFDE
:1002A000CE0164E670E050D1CB016AE070E04CD141
:1002B000805DAADFCE016AE070E046D1CB016AE042
:1002C00070E042D1805DA0DFCE016AE070E03CD1F9
:1002D000805D9ADFDF91CF9108951BB88FEF8AB9C7
:1002E00024EF31E040E951E0CA010197F1F72150D4
:1002F0003040D1F75D9A5C985A9A5A9880E29EE411
:100300000197F1F788E25CDF88E05ADF81E058DF8F
:1003100080E991E00197F1F786E052DF8CE050CF61
:1003200048B121E030E002C0220F331F6A95E2F7A6
:10033000922F9095942398B940E050E0E1E0F0E0EE
:10034000682F70E02898CF01042E02C0880F991FF3
:100350000A94E2F786239723042E02C09595879589
:100360000A94E2F7882311F0299A01C02998289A63
:1003700029984F5F5F4F4830510521F788B1282BEE
:1003800028B90895AF92BF92CF92DF92FF920F9358
:100390001F93DF93CF9300D0CDB7DEB784B18360D6
:1003A00084B987B18F6087B987B18F7C87B98FEFA8
:1003B00085B988B1806388B990DF82E08093B80006
:1003C00083E08093B9008091BC0084608093BC007E
:1003D00081E860E071E03DDF84EC6DE071E039DFE1
:1003E00080E0BE016F5F7F4F95DE69816F77698323
:1003F00080E0C2DEB2E0CB2ED12CCC0EDD1EA0E917
:10040000AA2EA1E0BA2E80E0B60184DEFA8081E057
:10041000B60180DE4A81842F82958F7090E09C0126
:10042000F3E0220F331FFA95E1F7880F991F280F89
:10043000391F042F0F70020F82E0B6016BDE1A81A4
:10044000812F82958F7090E09C0173E0220F331F03
:100450007A95E1F7880F991F280F391F1F70120F27
:1004600084ECAEDE812F90E062E006DF87ECA8DE50
:10047000802F90E062E000DF8AECA2DE8F2D829573
:100480008F7090E09C0153E0220F331F5A95E1F7E3
:10049000880F991F280F391F8FE0F8228F2D820FA8
:1004A00090E062E0E9DE812F6AE042D041D0E92F9E
:1004B000F0E0EA5EFE4F808163E032DF812F6AE088
:1004C00037D0E92FF0E0EA5EFE4F808162E028DF5E
:1004D000802F6AE02DD02CD0E92FF0E0EA5EFE4FAD
:1004E000808161E01DDF802F6AE022D0E92FF0E0FB
:1004F000EA5EFE4F808160E013DF0C3308F000E01D
:10050000802F6AE015D0282F30E084E0220F331FBF
:100510008A95E1F7802F0CD0922B81E0692F2CDE99
:1005200088EE93E0F5013197F1F70197D9F76BCF9A
:10053000991B79E004C0991F961708F0961B881F35
:100540007A95C9F780950895AA1BBB1B51E107C096
:10055000AA1FBB1FA617B70710F0A61BB70B881F53
:10056000991F5A95A9F780959095BC01CD010895E2
:04057000F894FFCF2D
:10057400636C6F636B204453313330370020203A6F
:1005840020203A202000FD60DAF266B6BFE0FEF6D5
:00000001FF
